:1000000012C095C02BC02AC029C028C027C026C056
:1000100025C02CC023C022C021C020C059C01EC092
:100020001DC01CC01BC011241FBECFE5D4E0DEBF25
:10003000CDBF10E0A0E6B0E0EEE6F7E002C005902C
:100040000D92AE3AB107D9F710E0AEEAB0E001C0C8
:100050001D92AF3CB107E1F746D187C3D1CF87B13D
:10006000806C87B986B1886886B908951F920F920F
:100070000FB60F9211245F936F937F938F939F938B
:10008000AF93BF93F8948091B1009091B2006EE16C
:1000900070E0CFD2409720F08AE28093B90002C08E
:1000A0001092B9008091B1009091B20001969093A6
:1000B000B2008093B1007894BF91AF919F918F91DE
:1000C0007F916F915F910F900FBE0F901F901895C9
:1000D0001F920F920FB60F9211248F939F93F89453
:1000E00084B195B19093B0008093AF008091B3003C
:1000F0008F5F8093B30078949F918F910F900FBE84
:100100000F901F90189597B1907F982B97B986B153
:100110008B6486B9089583B7856083BF89B7816092
:1001200089BF089513BE89B78E7F89BF08951F9236
:100130000F920FB60F9211248F939F9388B392E082
:10014000892788BB8091B4008F5F8093B4009F9112
:100150008F910F900FBE0F901F90189581E88FBD63
:1001600083E08EBD08952091B50048EC50E021C099
:100170002F5F822F90E09BBD8ABD223340F480E93F
:1001800091E0FA013197F1F70197D9F711C02436C0
:1001900040F480E991E0FA013197F1F70197D9F73E
:1001A00007C080E991E0FA013197F1F70197D9F79B
:1001B000A8952F3FE9F62093B50081E08093B60023
:1001C00008958091B50040E45CE911C0282F2150CA
:1001D000829904C08093B50080E00895822F90E05A
:1001E0009BBD8ABDCA010197F1F7A895822F88238C
:1001F00069F71092B5001092B60081E0089585B7B6
:100200008C7F85BF8BB780648BBF089585B78C7F4B
:1002100085BF8BB780648BBF08958BB78F7B8BBFF7
:100220000895A99A20E030E040E060EA7FE087B1DD
:10023000807F87B986B18B6486B903C0CB010197F3
:10024000F1F78091B3008823C9F38091AF009091BA
:10025000B000280F391F4F5F483049F783E03595CC
:1002600027958A95E1F73093B0002093AF00109264
:10027000B300A9988091AF009091B000825B92404A
:1002800010F480E008958091AF009091B0008859FB
:10029000934010F082E0089584EF91E028EC30E084
:1002A000F9013197F1F70197D9F781E0089585B702
:1002B0008C7F85BF87B3836087BBA19A929A81E8C0
:1002C0008FBD83E08EBD87B1806C87B986B18868A9
:1002D00086B960E875E280E090E0B6D0789480E678
:1002E00090E0D4D00895BF92CF92DF92EF92FF9228
:1002F0000F931F93CF93DF93DADF48E1E42EF12CC5
:100300003FE0B32EC8ECD0E024E0C22E11E002E0C2
:1003100098E1D92E0FB6F894A895E1BC0FBEB1BCF8
:10032000C09A80ED97E0FE013197F1F70197D9F778
:100330008091B400882341F088E690E0A7D0C09275
:10034000A8001092B4000FDF83B7856083BF89B720
:10035000816089BF1093A80017C08091B9008111F6
:100360008CD0A89588EE93E0FE013197F1F70197C4
:10037000D9F7829909C01092B2001092B100809111
:10038000B600813009F0EFDE8091B1009091B200AB
:100390008A35910510F380E790E078D013BE89B7D5
:1003A0008E7F89BF1093A9001092B2001092B10005
:1003B0008AE790E06BD035DF882371F48DE790E019
:1003C00065D088EE93E0FE013197F1F70197D9F7F8
:1003D000A8951092A90002C01093A900F2DE88230C
:1003E00021F41092A9001093B4008091A9008823F1
:1003F00009F490CF88EE93E0FE013197F1F7019771
:10040000D9F70093A800C0988CE890E03FD00FB6D1
:10041000F894D1BC11BC0FBE85B78C7F85BF8BB75C
:1004200080648BBF85B78F78806285BF85B7806811
:1004300085BF78940093A800889585B78F7785BF8E
:100440008BB78F7B8BBF66CF9B01AC0188E08AB9ED
:100450001BB884E0220F331F441F551F8A95D1F724
:1004600060E072E18AE790E0F8D0215029B98091EC
:10047000BA008B7F8093BA000895982F8091BA00BC
:1004800082FD03C05D9BFECF9CB90895CF93DF939F
:10049000EC0102C02196F1DF88818823D9F7DF9132
:1004A000CF9108956F927F928F929F92AF92BF9259
:1004B000CF92DF92EF92FF920F931F93DF93CF9330
:1004C000CDB7DEB764970FB6F894DEBF0FBECDBFD1
:1004D0008E010B5D1F4FF801E190F1908F01BB245D
:1004E0003E010894611C711C5BE0852E912C8C0EE2
:1004F0009D1E40E3A42E02C068018601F70184918D
:10050000882309F481C00894E11CF11C853209F0AC
:1005100079C0F7010894E11CF11C2491822F90E02E
:10052000C0970A9710F0822F0AC02B871C86C4013F
:10053000B6D0B82EF7010894E11CF11C84918936DD
:1005400071F08A3628F4823661F08336A9F61CC031
:10055000833749F0883719F18F3671F61EC04AE0AB
:100560001FC042E01DC032E0C32ED12CC00ED11EF0
:10057000F8010081118103C00F5F1F4F7EDFF8017A
:1005800080818823C9F7B9CF22E0C22ED12CC00EBA
:10059000D11EF801808171DFB0CF48E001C040E199
:1005A00092E0C92ED12CC00ED11EF801808191811C
:1005B000B30150E0A3D020E030E0A9014F5F5F4FCE
:1005C000F301E20FF31F8081882311F09A01F5CF28
:1005D0008B2D90E0281739078CF4B21AF401C4016E
:1005E0008B0D911D01C0A192E817F907E1F7108268
:1005F000C401B30171D0C301B40179D0C30146DF96
:10060000BB247BCF3ADF78CF64960FB6F894DEBF79
:100610000FBECDBFCF91DF911F910F91FF90EF9053
:10062000DF90CF90BF90AF909F908F907F906F9012
:100630000895AA1BBB1B51E107C0AA1FBB1FA61729
:10064000B70710F0A61BB70B881F991F5A95A9F77B
:1006500080959095BC01CD010895A1E21A2EAA1BA8
:10066000BB1BFD010DC0AA1FBB1FEE1FFF1FA21762
:10067000B307E407F50720F0A21BB30BE40BF50B5F
:10068000661F771F881F991F1A9469F760957095E8
:10069000809590959B01AC01BD01CF010895FC01AF
:1006A00088279927E89421912032E9F3293010F026
:1006B0002E30C8F32B3239F02D3231F4689403C058
:1006C0003CD0820F911D219120532A30C8F31EF493
:1006D000909581959F4F0895FB01DC010D900020BE
:1006E000E9F7119701900D920020E1F70895FB01C1
:1006F000DC0101900D920020E1F70895FB019F01BC
:10070000E8944230BCF04532ACF44A3029F497FB0F
:100710001EF4909581959F4F642F77278ADF805D27
:100720008A330CF0895D8193CB010097A9F716F409
:100730005DE251931082C90108C07AE0979F902D25
:10074000879F802D910D11240895DC01FC01672FF6
:1007500071917723E1F7329704C07C916D93708398
:0E0760006291AE17BF07C8F30895F894FFCF5B
:10076E00494E4954204F4B004D4F54494F4E200097
:10077E0054696D657220656E64000A0D00426174E5
:10078E00206469736368617267656400536C6565A4
:10079E00700A0D00000000000000000000000000C4
:0E07AE0000000000000000000101BB00BB00C5
:00000001FF
